:1000000053C06DC06CC06BC06AC069C068C067C0B7
:1000100066C065C064C063C062C061C060C05FC0CC
:100020005EC05DC05CC007634236B79BD8A71A3973
:10003000685618AEBAAB558C1D3CB7CC5763BD6D36
:10004000EDFD753EF6177231BF000000803F0800DD
:100050000000BE922449123EABAAAA2ABECDCCCC47
:100060004C3E00000080BEABAAAAAA3E00000000E1
:10007000BF000000803F0000000000084178D3BBB3
:100080004387D1133D190E3CC3BD4282AD2B3E6860
:10009000EC8276BED98FE1A93E4C80EFFFBE01C451
:1000A000FF7F3F000000000011241FBECFE5D4E019
:1000B000DEBFCDBF10E0A0E6B0E0EAE4FCE002C0A5
:1000C00005900D92A838B107D9F720E0A8E8B0E074
:1000D00001C01D92A039B207E1F78ED0B4C590CF10
:1000E0005D9BFECF8CB908955F9BFECF8CB10895C8
:1000F00010BC85E089B980B5866880BD8AB1886109
:100100008AB90895CF93DF93FC0197FD59C02AE087
:1001100030E0B9018AD1DC01A259BF4F4C91CB012B
:10012000B90183D1DC01A259BF4F3C91CF0164E6F4
:1001300070E07BD1CB016AE070E077D1FC01E2593D
:10014000FF4F20812D3FC1F12330A9F188E006C087
:10015000A89AA99A4695A998815041F040FDF8CFF8
:10016000A898A99A4695A9988150C1F788E006C039
:10017000A89AA99A3695A998815041F030FDF8CFF8
:10018000A898A99A3695A9988150C1F788E006C029
:10019000A89AA99A2695A998815041F020FDF8CFF8
:1001A000A898A99A2695A9988150C1F7AA9AAA98C1
:1001B000DF91CF9108952FEF333041F63FEFC6CF57
:1001C00020917800F195E195F109CAE0D0E0CF01E6
:1001D000BE012BD1DC01A259BF4F4C91CB01BE0116
:1001E00024D1DC01A259BF4F3C912111ABCFCF01EB
:1001F00064E670E01AD19ECFCF93DF93CDB7DEB720
:1002000028970FB6F894DEBF0FBECDBF87E084BB42
:1002100015BA8B98939A87B3846287BBBC98C29AAD
:1002200087E58DB910BC85E089B980B5866880BD49
:100230008AB188618AB980E690E090938D008093BE
:100240008C0090938B0080938A0089E790E0CBD458
:100250000EC0809188009091890054DF8FEF9FED50
:1002600020E1815090402040E1F700C00000839BD6
:10027000F0CFC29884E0C12CD12C76011FB8779BB7
:10028000FECFFE2CED2CDC2CCC249FB1C90ED11C52
:10029000E11CF11C815091F7C29AB60175956795E2
:1002A000759567957595679575956795072E000CFB
:1002B000880B990B79D120E030E040E85DE304D26F
:1002C000B2D23FD1709389006093880042E1F594E7
:1002D000E794D794C7944A95D1F7F7FE05C023E079
:1002E000C20ED11CE11CF11CC701B6019595879582
:1002F00077956795959587957795679555D16B0116
:100300007C0120E030E048EC51E4DAD118160CF41E
:1003100086C020E030E040EC50E4C701B60137D29F
:100320004B015C0120E030E040EA50E4C701B60137
:100330002ED22B013C0120E030E040E850E4C70120
:10034000B60125D269837A838B839C8320E030E0D9
:1003500040E450E4C701B6011AD26D837E838F83D7
:1003600098872EE238EF45EE5EEAC501B401ACD1C4
:100370004B015C0123E235E840E153E3C301B201E4
:10038000A3D19B01AC01C501B40176D04B015C0146
:1003900026ED3CE04BE656E369817A818B819C81B6
:1003A00093D19B01AC01C501B40166D04B015C0146
:1003B0002AEE38E14FEB58E36D817E818F8198857D
:1003C00083D19B01AC01C501B40156D04B015C0146
:1003D000A7019601C701B60177D12BEF3CE44BE0B2
:1003E0005BE372D19B01AC01C501B40146D04B0166
:1003F0005C0127EB3DE842E95FE3C701B60164D148
:100400009B01AC01C501B40138D02AE031ED41EBCC
:100410005EE332D008D295D0CB0174DE1FCFC70186
:10042000B6018FD0CB016EDE19CF97FB072E16F4E5
:10043000009406D077FD08D00BD007FC05D03EF421
:10044000909581959F4F0895709561957F4F089580
:10045000AA1BBB1B51E107C0AA1FBB1FA617B707EA
:1004600010F0A61BB70B881F991F5A95A9F7809506
:100470009095BC01CD0108955058BB27AA270ED0F6
:10048000E5C0D6D030F0DBD020F031F49F3F11F43E
:100490001EF4CBC00EF4E095E7FBC1C0E92FE7D016
:1004A00080F3BA17620773078407950718F071F491
:1004B0009EF5FFC00EF4E0950B2EBA2FA02D0B0178
:1004C000B90190010C01CA01A0011124FF27591B99
:1004D00099F0593F50F4503E68F11A16F040A22F9F
:1004E000232F342F4427585FF3CF46953795279510
:1004F000A795F0405395C9F77EF41F16BA0B620B0F
:10050000730B840BBAF09150A1F0FF0FBB1F661F55
:10051000771F881FC2F70EC0BA0F621F731F841F98
:1005200048F4879577956795B795F7959E3F08F0BE
:10053000B3CF9395880F08F09927EE0F979587957D
:10054000089504D06894B111B5C0089598D088F08A
:100550009F5790F0B92F9927B751A0F0D1F0660FAF
:10056000771F881F991F1AF0BA95C9F712C0B130CA
:1005700081F09FD0B1E008959CC0672F782F882725
:10058000B85F39F0B93FCCF3869577956795B39509
:10059000D9F73EF490958095709561957F4F8F4F78
:1005A0009F4F0895E89409C097FB3EF4909580957D
:1005B000709561957F4F8F4F9F4F9923A9F0F92F29
:1005C00096E9BB279395F695879577956795B795A7
:1005D000F111F8CFFAF4BB0F11F460FF1BC06F5F8D
:1005E0007F4F8F4F9F4F16C0882311F096E911C09F
:1005F000772321F09EE8872F762F05C0662371F0C0
:1006000096E8862F70E060E02AF09A95660F771FD3
:10061000881FDAF7880F9695879597F9089597F9C7
:100620009F6780E870E060E008959FEF80EC089598
:1006300000240A94161617061806090608950024C1
:100640000A9412161306140605060895092E03943B
:10065000000C11F4882352F0BB0F40F4BF2B11F4AF
:1006600060FF04C06F5F7F4F8F4F9F4F089557FD0E
:100670009058440F551F59F05F3F71F04795880F10
:1006800097FB991F61F09F3F79F0879508951216A7
:1006900013061406551FF2CF4695F1DF08C0161653
:1006A00017061806991FF1CF869571056105089404
:1006B0000895E894BB2766277727CB0197F908951B
:1006C00003D108F48FEF08950BD0C0CFB1DF28F02D
:1006D000B6DF18F0952309F0A2CFA7CF1124EACFF7
:1006E000C6DFA0F3959FD1F3950F50E0551F629F91
:1006F000F001729FBB27F00DB11D639FAA27F00D7B
:10070000B11DAA1F649F6627B00DA11D661F829FA1
:100710002227B00DA11D621F739FB00DA11D621F86
:10072000839FA00D611D221F749F3327A00D611DA3
:10073000231F849F600D211D822F762F6A2F112485
:100740009F5750408AF0E1F088234AF0EE0FFF1FD8
:10075000BB1F661F771F881F91505040A9F79E3F0F
:10076000510570F05CCFA6CF5F3FECF3983EDCF311
:10077000869577956795B795F795E7959F5FC1F74C
:10078000FE2B880F911D9695879597F90895FA018C
:10079000EE0FFF1F30962105310599F161157105A6
:1007A00061F48038BFE39B0749F168949038810574
:1007B00061F08038BFEF9B0741F0992342F5FF3F7E
:1007C000E1053105210511F1E8940894E795D90177
:1007D000AA2329F4AB2FBE2FF85FD0F310C0FF5F20
:1007E00070F4A695E0F7F73950F019F0FF3A38F4B5
:1007F0009F779F930CD00F9007FC905808953EF080
:1008000014CF60E070E080E89FE308954FE79F77A2
:100810005F934F933F932F930BD12F913F914F9124
:100820005F9152DF25C02BDFE0F09E37D8F096397C
:10083000B8F49E3848F4672F782F8827985FF9CF4F
:1008400086957795679593959539D0F3B62FB170C6
:100850006B0F711D811D20F4879577956795939592
:1008600057C071C027CF19F40EF0D9CE22CFDDCEFC
:1008700006DFC8F39638C0F707F80F92E8942BE329
:100880003AEA48EB5FE72EDF0F920F920F924DB7D7
:100890005EB70F920DD1E6E2F0E063D04F915F9129
:1008A000EF91FF91E595EE1FFF1F49F0FE57E068BD
:1008B0004427EE0F441FFA95E1F74195550B7FD081
:1008C0000F9007FE73C00895990F0008550FAA0BEB
:1008D000E0E8FEEF16161706E807F907C0F0121653
:1008E0001306E407F50798F0621B730B840B950B56
:1008F00039F40A2661F0232B242B252B21F40895AB
:100900000A2609F4A140A6958FEF811D811D089547
:10091000882371F4772321F09850872B762F07C016
:10092000662311F499270DC09051862B70E060E08A
:100930002AF09A95660F771F881FDAF7880F969529
:10094000879597F908959F3F31F0915020F487954E
:1009500077956795B795880F911D9695879597F927
:100960000895DF93CF931F930F93FF92EF92DF923F
:100970007B018C01689405C0DA2EEF01B1DEFE0127
:10098000E894A5912591359145915591AEF3EF01EC
:1009900085DDFE019701A801DA9479F7DF90EF90E9
:1009A000FF900F911F91CF91DF9108959B01AC01B2
:1009B00060E070E080E89FE3AEC031CEC4CF5FDE80
:1009C000E8F39923D9F3940F511DBBF39150504094
:1009D00094F059F0882332F0660F771F881F9150EA
:1009E0005040C1F79E3F510544F7880F911D9695E1
:1009F000879597F908955F3FACF0983E9CF0BB2730
:100A0000869577956795B79508F4B1609395C1F78A
:100A1000BB0F58F711F460FFE8CF6F5F7F4F8F4F28
:100A20009F4FE3CF47CE0EF08ECFFFCD6894F7CD2A
:100A300026DEC8F39923D1F3C6F3DF93CF931F9338
:100A40000F93FF92C92FDD2788232AF02197660F85
:100A5000771F881FDAF720E030E040E85FEB9FE384
:100A6000883920F0803E30F021968F7706DDEEE465
:100A7000F0E003C002DDEBE7F0E073DF8B01BE01C5
:100A8000EC01FB2E6F5771097595771F880B990B39
:100A90008BDD28E132E741E35FE322DEAF2D9801F1
:100AA000AE01FF900F911F91CF91DF91F7DCCECD7A
:100AB000FA01DC01AA0FBB1F9B01AC01BF5728F450
:100AC00022273327442750781FC0B75188F4AB2F13
:100AD0000024469537952795011CA395D2F3002055
:100AE00069F0220F331F441FB395DAF30DD0C4CC45
:100AF00061307105A0E88A07B94630F49B01AC016A
:100B00006627772788279078309621F020833183D5
:100B10004283538308950CD099CD91DD40F088DD58
:100B200030F021F45F3F19F07ACD5111C3CD7DCD66
:100B30009EDD98F39923C9F35523B1F3951B550B0B
:100B4000BB27AA2762177307840738F09F5F5F4FA0
:100B5000220F331F441FAA1FA9F333D00E2E3AF0E1
:100B6000E0E830D091505040E695001CCAF729D0FB
:100B7000FE2F27D0660F771F881FBB1F261737074A
:100B80004807AB07B0E809F0BB0B802DBF01FF277A
:100B900093585F4F2AF09E3F510568F040CD8ACDB3
:100BA0005F3FECF3983EDCF3869577956795B795B4
:100BB000F7959F5FC9F7880F911D9695879597F9CF
:100BC0000895E1E0660F771F881FBB1F6217730748
:100BD0008407BA0720F0621B730B840BBA0BEE1F5D
:100BE00088F7E09508950F931F93CF93DF93E091DB
:100BF0008C00F0918D00238121FF1BC08C01D0E07F
:100C0000C0E0F80181918F0160918C0070918D009E
:100C1000DB011896ED91FC911997882331F0099525
:100C2000892B79F3DFEFCFEFECCF8AE00995892BA1
:100C300019F08FEF9FEF02C08D2F9C2FDF91CF9186
:0A0C40001F910F910895F894FFCF63
:100C4A000000000300000000700074000000039F11
:100C5A00250D9949411F0109FD48656C6C6F207784
:080C6A006F726C64210D0000A3
:00000001FF
